:020000002C28AA
:100006008E30831603139F00813083129F000800F1
:10001600831203131F151F1D11280E281E08F10039
:0E002600F00183161E08F0040030F1040800FB
:10003400FB308316031387050C30831297000330BB
:100044009200F9308316920083129101FD308C05E1
:040054001215080079
:1000580083120313A201A301A401A5010230831690
:1000680087000230860088018312860188010320F8
:100078001A208718AD280B2070088312A200710877
:10008800A3000330FB000830FC007730FD00FD0BB7
:100098004B28FC0B4B28FB0B4B282308023C031D69
:1000A80057282208803C0318AB280630FB00133081
:1000B800FC00AD30FD00FD0B5F28FC0B5F28FB0B3F
:1000C8005F28000000000130A4000030A5002408CB
:1000D80025040319AA28FF3088000608023A031DE0
:1000E8009928A401A50188013E309500CF309705D5
:1000F8006630FB007630FC00C130FD00FD0B822825
:10010800FC0B8228FB0B8228DC309500CF3097054A
:100118006630FB007630FC00C130FD00FD0B9228F4
:10012800FC0B9228FB0B92289D280130A40000307C
:10013800A5000330FB000830FC007730FD00FD0B04
:10014800A328FC0BA328FB0BA3286B28AC28880149
:10015800AE2888010630FB001330FC00AD30FD00EE
:10016800FD0BB428FC0BB428FB0BB42800000000DE
:040178003D28BD2839
:02400E004A2F37
:00000001FF
